{
  "_format": "hh-sol-artifact-1",
  "contractName": "USA2028Voting",
  "sourceName": "contracts/USA2028Voting.sol",
  "abi": [
    {
      "inputs": [],
      "stateMutability": "nonpayable",
      "type": "constructor"
    },
    {
      "inputs": [
        {
          "internalType": "address",
          "name": "owner",
          "type": "address"
        }
      ],
      "name": "OwnableInvalidOwner",
      "type": "error"
    },
    {
      "inputs": [
        {
          "internalType": "address",
          "name": "account",
          "type": "address"
        }
      ],
      "name": "OwnableUnauthorizedAccount",
      "type": "error"
    },
    {
      "inputs": [],
      "name": "ReentrancyGuardReentrantCall",
      "type": "error"
    },
    {
      "anonymous": false,
      "inputs": [
        {
          "indexed": true,
          "internalType": "address",
          "name": "previousOwner",
          "type": "address"
        },
        {
          "indexed": true,
          "internalType": "address",
          "name": "newOwner",
          "type": "address"
        }
      ],
      "name": "OwnershipTransferred",
      "type": "event"
    },
    {
      "anonymous": false,
      "inputs": [
        {
          "indexed": false,
          "internalType": "uint256",
          "name": "partyId",
          "type": "uint256"
        },
        {
          "indexed": false,
          "internalType": "string",
          "name": "name",
          "type": "string"
        },
        {
          "indexed": false,
          "internalType": "string",
          "name": "candidate",
          "type": "string"
        }
      ],
      "name": "PartyAdded",
      "type": "event"
    },
    {
      "anonymous": false,
      "inputs": [
        {
          "indexed": false,
          "internalType": "address",
          "name": "voter",
          "type": "address"
        },
        {
          "indexed": false,
          "internalType": "uint256",
          "name": "partyId",
          "type": "uint256"
        }
      ],
      "name": "VoteCast",
      "type": "event"
    },
    {
      "anonymous": false,
      "inputs": [
        {
          "indexed": false,
          "internalType": "address",
          "name": "voter",
          "type": "address"
        }
      ],
      "name": "VoterRegistered",
      "type": "event"
    },
    {
      "anonymous": false,
      "inputs": [
        {
          "indexed": false,
          "internalType": "uint256",
          "name": "endTime",
          "type": "uint256"
        }
      ],
      "name": "VotingEnded",
      "type": "event"
    },
    {
      "anonymous": false,
      "inputs": [
        {
          "indexed": false,
          "internalType": "uint256",
          "name": "startTime",
          "type": "uint256"
        },
        {
          "indexed": false,
          "internalType": "uint256",
          "name": "duration",
          "type": "uint256"
        }
      ],
      "name": "VotingStarted",
      "type": "event"
    },
    {
      "inputs": [
        {
          "internalType": "string",
          "name": "name",
          "type": "string"
        },
        {
          "internalType": "string",
          "name": "candidate",
          "type": "string"
        }
      ],
      "name": "addParty",
      "outputs": [],
      "stateMutability": "nonpayable",
      "type": "function"
    },
    {
      "inputs": [
        {
          "internalType": "uint256",
          "name": "partyId",
          "type": "uint256"
        },
        {
          "internalType": "euint32",
          "name": "encryptedOne",
          "type": "bytes32"
        }
      ],
      "name": "castVote",
      "outputs": [],
      "stateMutability": "nonpayable",
      "type": "function"
    },
    {
      "inputs": [],
      "name": "endVoting",
      "outputs": [],
      "stateMutability": "nonpayable",
      "type": "function"
    },
    {
      "inputs": [
        {
          "internalType": "uint256",
          "name": "partyId",
          "type": "uint256"
        }
      ],
      "name": "getParty",
      "outputs": [
        {
          "internalType": "string",
          "name": "name",
          "type": "string"
        },
        {
          "internalType": "string",
          "name": "candidate",
          "type": "string"
        },
        {
          "internalType": "bool",
          "name": "exists",
          "type": "bool"
        }
      ],
      "stateMutability": "view",
      "type": "function"
    },
    {
      "inputs": [],
      "name": "getPartyCount",
      "outputs": [
        {
          "internalType": "uint256",
          "name": "",
          "type": "uint256"
        }
      ],
      "stateMutability": "view",
      "type": "function"
    },
    {
      "inputs": [],
      "name": "getRegisteredVotersCount",
      "outputs": [
        {
          "internalType": "uint256",
          "name": "",
          "type": "uint256"
        }
      ],
      "stateMutability": "view",
      "type": "function"
    },
    {
      "inputs": [],
      "name": "getTotalVotesCiphertext",
      "outputs": [
        {
          "internalType": "euint32",
          "name": "",
          "type": "bytes32"
        }
      ],
      "stateMutability": "view",
      "type": "function"
    },
    {
      "inputs": [
        {
          "internalType": "uint256",
          "name": "partyId",
          "type": "uint256"
        }
      ],
      "name": "getVoteCountCiphertext",
      "outputs": [
        {
          "internalType": "euint32",
          "name": "",
          "type": "bytes32"
        }
      ],
      "stateMutability": "view",
      "type": "function"
    },
    {
      "inputs": [],
      "name": "getVotingState",
      "outputs": [
        {
          "internalType": "enum USA2028Voting.VotingState",
          "name": "",
          "type": "uint8"
        }
      ],
      "stateMutability": "view",
      "type": "function"
    },
    {
      "inputs": [
        {
          "internalType": "address",
          "name": "voter",
          "type": "address"
        }
      ],
      "name": "hasVoted",
      "outputs": [
        {
          "internalType": "bool",
          "name": "",
          "type": "bool"
        }
      ],
      "stateMutability": "view",
      "type": "function"
    },
    {
      "inputs": [
        {
          "internalType": "address",
          "name": "voter",
          "type": "address"
        }
      ],
      "name": "isVoterRegistered",
      "outputs": [
        {
          "internalType": "bool",
          "name": "",
          "type": "bool"
        }
      ],
      "stateMutability": "view",
      "type": "function"
    },
    {
      "inputs": [],
      "name": "owner",
      "outputs": [
        {
          "internalType": "address",
          "name": "",
          "type": "address"
        }
      ],
      "stateMutability": "view",
      "type": "function"
    },
    {
      "inputs": [
        {
          "internalType": "uint256",
          "name": "",
          "type": "uint256"
        }
      ],
      "name": "parties",
      "outputs": [
        {
          "internalType": "string",
          "name": "name",
          "type": "string"
        },
        {
          "internalType": "string",
          "name": "candidateName",
          "type": "string"
        },
        {
          "internalType": "bool",
          "name": "exists",
          "type": "bool"
        }
      ],
      "stateMutability": "view",
      "type": "function"
    },
    {
      "inputs": [],
      "name": "partyCount",
      "outputs": [
        {
          "internalType": "uint256",
          "name": "",
          "type": "uint256"
        }
      ],
      "stateMutability": "view",
      "type": "function"
    },
    {
      "inputs": [
        {
          "internalType": "address[]",
          "name": "voterAddresses",
          "type": "address[]"
        }
      ],
      "name": "registerMultipleVoters",
      "outputs": [],
      "stateMutability": "nonpayable",
      "type": "function"
    },
    {
      "inputs": [
        {
          "internalType": "address",
          "name": "voter",
          "type": "address"
        }
      ],
      "name": "registerVoter",
      "outputs": [],
      "stateMutability": "nonpayable",
      "type": "function"
    },
    {
      "inputs": [
        {
          "internalType": "uint256",
          "name": "",
          "type": "uint256"
        }
      ],
      "name": "registeredVoters",
      "outputs": [
        {
          "internalType": "address",
          "name": "",
          "type": "address"
        }
      ],
      "stateMutability": "view",
      "type": "function"
    },
    {
      "inputs": [],
      "name": "renounceOwnership",
      "outputs": [],
      "stateMutability": "nonpayable",
      "type": "function"
    },
    {
      "inputs": [
        {
          "internalType": "uint256",
          "name": "durationInMinutes",
          "type": "uint256"
        }
      ],
      "name": "startVoting",
      "outputs": [],
      "stateMutability": "nonpayable",
      "type": "function"
    },
    {
      "inputs": [
        {
          "internalType": "address",
          "name": "newOwner",
          "type": "address"
        }
      ],
      "name": "transferOwnership",
      "outputs": [],
      "stateMutability": "nonpayable",
      "type": "function"
    },
    {
      "inputs": [
        {
          "internalType": "address",
          "name": "",
          "type": "address"
        }
      ],
      "name": "voters",
      "outputs": [
        {
          "internalType": "bool",
          "name": "hasVoted",
          "type": "bool"
        },
        {
          "internalType": "bool",
          "name": "isRegistered",
          "type": "bool"
        }
      ],
      "stateMutability": "view",
      "type": "function"
    },
    {
      "inputs": [],
      "name": "votingEndTime",
      "outputs": [
        {
          "internalType": "uint256",
          "name": "",
          "type": "uint256"
        }
      ],
      "stateMutability": "view",
      "type": "function"
    },
    {
      "inputs": [],
      "name": "votingStartTime",
      "outputs": [
        {
          "internalType": "uint256",
          "name": "",
          "type": "uint256"
        }
      ],
      "stateMutability": "view",
      "type": "function"
    },
    {
      "inputs": [],
      "name": "votingState",
      "outputs": [
        {
          "internalType": "enum USA2028Voting.VotingState",
          "name": "",
          "type": "uint8"
        }
      ],
      "stateMutability": "view",
      "type": "function"
    }
  ],
  "bytecode": "0x60806040523480156200001157600080fd5b5033806200003957604051631e4fbdf760e01b81526000600482015260240160405180910390fd5b62000044816200006e565b50600180556002805460ff19169055600060088190556200006590620000be565b600555620001ec565b600080546001600160a01b038381166001600160a01b0319831681178455604051919092169283917f8be0079c531659141344cd1fd0a4f28419497f9722a3daafe3b4186f6b6457e09190a35050565b6000620000d363ffffffff83166004620000d9565b92915050565b7fed8d60e34876f751cc8b014c560745351147d9de11b9347c854e881b128ea60154604051639cd07acb60e01b81526000917fed8d60e34876f751cc8b014c560745351147d9de11b9347c854e881b128ea600916001600160a01b0390911690639cd07acb906200015190879087906004016200019f565b6020604051808303816000875af115801562000171573d6000803e3d6000fd5b505050506040513d601f19601f82011682018060405250810190620001979190620001d2565b949350505050565b8281526040810160548310620001c557634e487b7160e01b600052602160045260246000fd5b8260208301529392505050565b600060208284031215620001e557600080fd5b5051919050565b6115d680620001fc6000396000f3fe608060405234801561001057600080fd5b50600436106101585760003560e01c806394758218116100c3578063c3403ddf1161007c578063c3403ddf14610303578063e56fd78c1461030b578063e9c2e17f1461031e578063eb2119db14610329578063f225c1f81461035a578063f2fde38b1461036d57600080fd5b8063947582181461026f5780639eb8e72514610282578063a3ec138d1461028b578063a91081a1146102ce578063b62312bf146102d6578063c0015bf0146102f057600080fd5b806360b960e51161011557806360b960e5146102115780636be2a1bd1461021957806370651a181461022c578063715018a61461024e5780638da5cb5b1461025657806392ead9f21461026757600080fd5b806309eef43e1461015d5780631ea736e01461019e5780632019a608146101b55780632436e06b146101be57806338db6dd3146101e95780633d2f5bda146101fe575b600080fd5b61018961016b3660046110b2565b6001600160a01b031660009081526009602052604090205460ff1690565b60405190151581526020015b60405180910390f35b6101a760045481565b604051908152602001610195565b6101a760035481565b6101d16101cc3660046110cd565b610380565b6040516001600160a01b039091168152602001610195565b6101fc6101f73660046110b2565b6103aa565b005b6101fc61020c3660046110cd565b6104c1565b6008546101a7565b6101fc6102273660046110e6565b610591565b61023f61023a3660046110cd565b6107d4565b6040516101959392919061114e565b6101fc610909565b6000546001600160a01b03166101d1565b6005546101a7565b61023f61027d3660046110cd565b61091d565b6101a760085481565b6102b76102993660046110b2565b60096020526000908152604090205460ff8082169161010090041682565b604080519215158352901515602083015201610195565b600a546101a7565b6002546102e39060ff1681565b604051610195919061119c565b6101fc6102fe36600461126d565b610a8f565b6101fc610aa1565b6101a76103193660046110cd565b610b4d565b60025460ff166102e3565b6101896103373660046110b2565b6001600160a01b0316600090815260096020526040902054610100900460ff1690565b6101fc6103683660046112d1565b610ba6565b6101fc61037b3660046110b2565b610d14565b600a818154811061039057600080fd5b6000918252602090912001546001600160a01b0316905081565b6103b2610d52565b6001600160a01b038116600090815260096020526040902054610100900460ff16156104255760405162461bcd60e51b815260206004820152601860248201527f566f74657220616c72656164792072656769737465726564000000000000000060448201526064015b60405180910390fd5b6001600160a01b0381166000818152600960209081526040808320805461ff001916610100179055600a805460018101825593527fc65a7bb8d6351c1cf70c95a316cc6a92839c986682d98bc35f958f4883f9d2a890920180546001600160a01b0319168417905590519182527fb6be2187d059cc2a55fe29e0e503b566e1e0f8c8780096e185429350acffd3dd91015b60405180910390a150565b6104c9610d52565b60006002805460ff16908111156104e2576104e2611186565b1461052f5760405162461bcd60e51b815260206004820152601a60248201527f566f74696e672068617320616c72656164792073746172746564000000000000604482015260640161041c565b4260035561053e81603c611394565b61054890426113ab565b6004556002805460ff1916600117905560035460408051918252602082018390527ff8c022056754dbacca05aff710dc315a2fa7699ae9309fda403cd1e55c11d40f91016104b6565b60016002805460ff16908111156105aa576105aa611186565b146105ee5760405162461bcd60e51b8152602060048201526014602482015273566f74696e67206973206e6f742061637469766560601b604482015260640161041c565b6105f6610d7f565b33600090815260096020526040902054610100900460ff166106515760405162461bcd60e51b8152602060048201526014602482015273159bdd195c881b9bdd081c9959da5cdd195c995960621b604482015260640161041c565b3360009081526009602052604090205460ff16156106a15760405162461bcd60e51b815260206004820152600d60248201526c105b1c9958591e481d9bdd1959609a1b604482015260640161041c565b60085482106106e55760405162461bcd60e51b815260206004820152601060248201526f125b9d985b1a59081c185c9d1e48125160821b604482015260640161041c565b60008281526007602052604090206002015460ff1661073d5760405162461bcd60e51b815260206004820152601460248201527314185c9d1e48191bd95cc81b9bdd08195e1a5cdd60621b604482015260640161041c565b6000828152600660205260409020546107569082610da9565b6000838152600660209081526040808320939093553382526009905220805460ff1916600117905560055461078b9082610da9565b60055560408051338152602081018490527fa36cc2bebb74db33e9f88110a07ef56e1b31b24b4c4f51b54b1664266e29f45b910160405180910390a16107d060018055565b5050565b6007602052600090815260409020805481906107ef906113be565b80601f016020809104026020016040519081016040528092919081815260200182805461081b906113be565b80156108685780601f1061083d57610100808354040283529160200191610868565b820191906000526020600020905b81548152906001019060200180831161084b57829003601f168201915b50505050509080600101805461087d906113be565b80601f01602080910402602001604051908101604052809291908181526020018280546108a9906113be565b80156108f65780601f106108cb576101008083540402835291602001916108f6565b820191906000526020600020905b8154815290600101906020018083116108d957829003601f168201915b5050506002909301549192505060ff1683565b610911610d52565b61091b6000610de4565b565b60608060008060076000868152602001908152602001600020604051806060016040529081600082018054610951906113be565b80601f016020809104026020016040519081016040528092919081815260200182805461097d906113be565b80156109ca5780601f1061099f576101008083540402835291602001916109ca565b820191906000526020600020905b8154815290600101906020018083116109ad57829003601f168201915b505050505081526020016001820180546109e3906113be565b80601f0160208091040260200160405190810160405280929190818152602001828054610a0f906113be565b8015610a5c5780601f10610a3157610100808354040283529160200191610a5c565b820191906000526020600020905b815481529060010190602001808311610a3f57829003601f168201915b50505091835250506002919091015460ff1615156020918201528151908201516040909201519097919650945092505050565b610a97610d52565b6107d08282610e34565b610aa9610d52565b60016002805460ff1690811115610ac257610ac2611186565b14610b065760405162461bcd60e51b8152602060048201526014602482015273566f74696e67206973206e6f742061637469766560601b604482015260640161041c565b6002805460ff1916811790554260048190556040519081527f81eb7415440ff8e6c8e92606fd3b0e5e6a5c99ea90cdb63b41aec54e897312b39060200160405180910390a1565b60006008548210610b935760405162461bcd60e51b815260206004820152601060248201526f125b9d985b1a59081c185c9d1e48125160821b604482015260640161041c565b5060009081526006602052604090205490565b610bae610d52565b60005b81518110156107d05760096000838381518110610bd057610bd06113f8565b6020908102919091018101516001600160a01b0316825281019190915260400160002054610100900460ff16610d0c57600160096000848481518110610c1857610c186113f8565b60200260200101516001600160a01b03166001600160a01b0316815260200190815260200160002060000160016101000a81548160ff021916908315150217905550600a828281518110610c6e57610c6e6113f8565b60209081029190910181015182546001810184556000938452919092200180546001600160a01b0319166001600160a01b0390921691909117905581517fb6be2187d059cc2a55fe29e0e503b566e1e0f8c8780096e185429350acffd3dd90839083908110610cdf57610cdf6113f8565b6020026020010151604051610d0391906001600160a01b0391909116815260200190565b60405180910390a15b600101610bb1565b610d1c610d52565b6001600160a01b038116610d4657604051631e4fbdf760e01b81526000600482015260240161041c565b610d4f81610de4565b50565b6000546001600160a01b0316331461091b5760405163118cdaa760e01b815233600482015260240161041c565b600260015403610da257604051633ee5aeb560e01b815260040160405180910390fd5b6002600155565b600082610dbd57610dba6000610ef4565b92505b81610dcf57610dcc6000610ef4565b91505b610ddb83836000610f07565b90505b92915050565b600080546001600160a01b038381166001600160a01b0319831681178455604051919092169283917f8be0079c531659141344cd1fd0a4f28419497f9722a3daafe3b4186f6b6457e09190a35050565b604080516060810182528381526020808201849052600182840152600854600090815260079091529190912081518190610e6e908261145f565b5060208201516001820190610e83908261145f565b50604091820151600291909101805460ff191691151591909117905560085490517f5ec24fdeacff55432963dbd1c38608a26892abe073580e6e8963924bab42d83b91610ed3918590859061151f565b60405180910390a160088054906000610eeb8361154a565b91905055505050565b6000610dde8263ffffffff166004610fd5565b6000808215610f1b5750600160f81b610f1f565b5060005b60007fed8d60e34876f751cc8b014c560745351147d9de11b9347c854e881b128ea600600181015460405163022f65e760e31b815260048101899052602481018890526001600160f81b0319851660448201529192506001600160a01b03169063117b2f38906064016020604051808303816000875af1158015610fa7573d6000803e3d6000fd5b505050506040513d601f19601f82011682018060405250810190610fcb9190611563565b9695505050505050565b7fed8d60e34876f751cc8b014c560745351147d9de11b9347c854e881b128ea60154604051639cd07acb60e01b81526000917fed8d60e34876f751cc8b014c560745351147d9de11b9347c854e881b128ea600916001600160a01b0390911690639cd07acb9061104b908790879060040161157c565b6020604051808303816000875af115801561106a573d6000803e3d6000fd5b505050506040513d601f19601f8201168201806040525081019061108e9190611563565b949350505050565b80356001600160a01b03811681146110ad57600080fd5b919050565b6000602082840312156110c457600080fd5b610ddb82611096565b6000602082840312156110df57600080fd5b5035919050565b600080604083850312156110f957600080fd5b50508035926020909101359150565b6000815180845260005b8181101561112e57602081850181015186830182015201611112565b506000602082860101526020601f19601f83011685010191505092915050565b6060815260006111616060830186611108565b82810360208401526111738186611108565b9150508215156040830152949350505050565b634e487b7160e01b600052602160045260246000fd5b60208101600383106111b0576111b0611186565b91905290565b634e487b7160e01b600052604160045260246000fd5b604051601f8201601f1916810167ffffffffffffffff811182821017156111f5576111f56111b6565b604052919050565b600082601f83011261120e57600080fd5b813567ffffffffffffffff811115611228576112286111b6565b61123b601f8201601f19166020016111cc565b81815284602083860101111561125057600080fd5b816020850160208301376000918101602001919091529392505050565b6000806040838503121561128057600080fd5b823567ffffffffffffffff8082111561129857600080fd5b6112a4868387016111fd565b935060208501359150808211156112ba57600080fd5b506112c7858286016111fd565b9150509250929050565b600060208083850312156112e457600080fd5b823567ffffffffffffffff808211156112fc57600080fd5b818501915085601f83011261131057600080fd5b813581811115611322576113226111b6565b8060051b91506113338483016111cc565b818152918301840191848101908884111561134d57600080fd5b938501935b838510156113725761136385611096565b82529385019390850190611352565b98975050505050505050565b634e487b7160e01b600052601160045260246000fd5b8082028115828204841417610dde57610dde61137e565b80820180821115610dde57610dde61137e565b600181811c908216806113d257607f821691505b6020821081036113f257634e487b7160e01b600052602260045260246000fd5b50919050565b634e487b7160e01b600052603260045260246000fd5b601f82111561145a576000816000526020600020601f850160051c810160208610156114375750805b601f850160051c820191505b8181101561145657828155600101611443565b5050505b505050565b815167ffffffffffffffff811115611479576114796111b6565b61148d8161148784546113be565b8461140e565b602080601f8311600181146114c257600084156114aa5750858301515b600019600386901b1c1916600185901b178555611456565b600085815260208120601f198616915b828110156114f1578886015182559484019460019091019084016114d2565b508582101561150f5787850151600019600388901b60f8161c191681555b5050505050600190811b01905550565b8381526060602082015260006115386060830185611108565b8281036040840152610fcb8185611108565b60006001820161155c5761155c61137e565b5060010190565b60006020828403121561157557600080fd5b5051919050565b828152604081016054831061159357611593611186565b826020830152939250505056fea26469706673582212201472235a1067b53f5f8e1e81cc80f2c2dc434edee3c86004e2b490ec46d4360164736f6c63430008180033",
  "linkReferences": {},
  "deployedLinkReferences": {}
}